:10200000008000209D3C0000853C0000853C0000D5
:1020100000000000000000000000000000000000C0
:10202000000000000000000000000000853C0000EF
:102030000000000000000000853C0000F13C0000B2
:10204000853C0000853C0000853C0000853C00008C
:10205000853C0000853C0000853C0000893C000078
:10206000853C0000853C0000853C0000853C00006C
:10207000853C000001390000853C0000853C0000E3
:10208000853C0000853C0000853C0000853C00004C
:1020900000000000853C0000853C0000853C0000FD
:1020A000853C0000853C0000853C0000853C00002C
:1020B0000000000010B5064C2378002B07D1054B1B
:1020C000002B02D0044800E000BF0123237010BDA4
:1020D0007402002000000000C8C00000044B10B5CE
:1020E000002B03D00349044800E000BF10BDC046E8
:1020F0000000000078020020C8C000007047000007
:1021000070B51D4C1D49636D002518680368DB69B7
:102110009847230058331D8023005A331D70184BF5
:102120006566A366E366256601F0F0FD2200F832DD
:10213000157022007532157022002300743215705C
:102140002200FC3358601D60032376327034158002
:102150000C48237000F098FA0400A84200D0FEE773
:10216000094801F0CDFDC82001F006FE2100022043
:1021700001F08CFF70BDC046C0020020127A000042
:10218000FFFF00006404002025240000F0B5414951
:1021900085B0414802F061F8404F414E3B78414DD7
:1021A000002B07D13378002B1AD13F4800F076FA84
:1021B000122815D03C4800F0B5FE3378002B18D11A
:1021C0003A4801F09DFD3A4B1A780C235343ED1821
:1021D0006B69384A5B019B18FF225A7205B0F0BD4B
:1021E0003378002BECD0304800F058FA9028E4D037
:1021F000E0E72D4800F052FA9028E1D1686800F03D
:102200004DFA9028EAD12C4A2B7A126A9A42E5D0EC
:10221000002BE3D03B78002BE0D00C22244B019222
:102220001B7800935343EB185C6900233B703378B1
:10223000224A234F002B0BD0019B00994B43EB18F4
:102240005B6908335B01D35C9B065B0F032B16D1E4
:102250000121184B65011B48EB1819712F504019CB
:10226000194D0834056103256401105DA84301433D
:10227000115540225A71303A5A719D72AEE70A48A0
:1022800000F050FE02AB3A00991D280001F0A1F8C1
:10229000CDE7C04640BA0000B00800203C06002050
:1022A00044060020D0030020640400202524000000
:1022B00058BA0000FF500041900200200050004139
:1022C000BC050020A00E0020FC05002070B52B4BA3
:1022D0002B4C2C4A63651A602300002558331D805F
:1022E00023005A331D70284B25606560A560E560AA
:1022F00025616561A561E56125626562A562E562AA
:1023000025636563A563E56325646564A564E56489
:10231000256525666566A366E366230003227033A0
:102320001A70230074331D70230075331D70230051
:1023300076331D802300F8331D7029007D32134849
:1023400005F0ACFD2300FC33DD605D609D60230083
:102350000F4AFF330F4920005D739D7303F038FD72
:102360000D4C200000F068F921000C4801F0ACF998
:1023700021000B4800F096FE70BDC04640060020CC
:10238000C002002050060020FFFF0000380300209C
:1023900000000020FD2000006404002090020020C6
:1023A000D003002070B500260A4B44011B195D685C
:1023B000AD04AD0CAE4206DA074B0848F15C03F001
:1023C000BBFB0136F6E7064BE418012323723F33CB
:1023D000637170BDA00E0020BC05002050060020D7
:1023E000FF50004170B500260A4B44011B195D697E
:1023F000AD04AD0CAE4206DA074B0848F15C03F0C1
:102400009BFB0136F6E7064BE418022323727E336A
:10241000637170BDA00E0020FC0500205006002056
:10242000FF500041224B70B51A780C235A43214BC0
:102430009B1880225D69204B5200998B6C01914260
:1024400028D101231D4A13701D4A137001F0A0FA10
:102450001022194BE6181B4BE418A271227AD307FD
:1024600008D5227A930705D5E3795B0702D52800C2
:10247000FFF7B8FFFF36337ADB0702D52800FFF7F6
:1024800091FF337A9B0702D52800FFF7ABFF10239B
:10249000737170BD9A8B80239B009A42D6D1002223
:1024A000074B1A70074BFF32E3185A72CEE7C0464B
:1024B00058BA0000D0030020005000413C06002024
:1024C00044060020FF500041704700207047002064
:1024D00070470020704770B505000C007F208443D2
:1024E0000020844233D1072B31D8824202D02C699C
:1024F000072C2CD02E00012428363068002812D159
:10250000002917D007263140C900002A23D04023D4
:102510002A690B4301322A613240134324012D19E9
:10252000AB61180013E00134E4B21036102CE4D192
:1025300000200CE001342301EB18002A08D04122CE
:102540009A602B6901332B6124012D19A86870BD95
:1025500001229A60F8E7334018000B00B3430343AD
:10256000DCE7F8B54B1C1B01C3189A6805000E0088
:10257000520617D501271C7A6407640F7B1E0E2BA9
:1025800000D901277A1C1301EB181B7A9B065B0FFD
:10259000A34211D01700102AF4D12B69A34201D114
:1025A000013C2C61002301223601AE19043575610E
:1025B000B361F2613362F8BD39002800FFF7D1FF43
:1025C000DCE710B5002901D1143010BD0200012351
:1025D00028321468A14203D114301B01C018F4E75B
:1025E0000133DBB21032102BF3D10020EDE770B5D0
:1025F0000C00412910D101000300002201251531F2
:102600002433FF31041D5A609D60DA601C60103372
:102610009942F8D1026170BD02000121283213688D
:102620009C4202D1FFF79DFFF5E70131C9B210329C
:102630001029F4D1EFE700000822114B30B5826079
:102640000500343203600121002342730200041D9F
:10265000153503618361C1610362446143602432C3
:10266000FF3553609160D36014601032AA42F8D1F4
:10267000AA2252008354034B443AFF3A1A6030BDF9
:102680004CBA000004000020AA2310B500245B000F
:10269000C45401F0B5F9200010BD0000014B1868CA
:1026A0007047C0460400002010B51400FFF789FFF2
:1026B000031E0DD00368002B0AD0002281689142CE
:1026C00005D01868A04203D00C330132F7E700238D
:1026D000180010BD70B516000D001C00D822002B8C
:1026E00006D0FFF76EFFD622002801D0002270C06E
:1026F000100070BDF7B514005201944600910022FD
:102700002100012701930423274E0831664472708B
:10271000264A49010B9D885C3D40AD009843284303
:1027200007258854019B885CDB192B403135A84371
:10273000DB0003438B540A9B0320DBB23371089BFD
:102740001B0628D58B5C83431F4340238F54B371F2
:10275000137B00255B0700D40335154E2022664409
:102760003000002105F09AFB7F20B3890099834354
:1027700001400B430F21B381B3890C400D49240262
:102780000B401C43B48173682A070B4D7E381D40F3
:1027900015437560FEBD8B5C834318000223034321
:1027A0008B5440237371D3E7FF5000410050004128
:1027B000A00E0020FFF0FFFFFFFFFF8FF0B585B0F8
:1027C0001F0006000C001500FFF7FBFED6230028B3
:1027D0002AD002680133002A26D02A0021003000C6
:1027E000FFF762FFDB23386000281DD0437A9B0887
:1027F000DAB20F2A00D90F2301221100DBB299406F
:102800000B000A99013B0B60002D10D00027037AC2
:10281000039202974268210001920B9A30000092C5
:102820002A00FFF767FF3B00180005B0F0BD7F21CD
:102830000268054B52019B189A890C408A43144345
:102840009C812B00F0E7C046A00E0020F7B51700D2
:1028500000911E0001F05AFA0025224B0099C3187E
:10286000380001932C0001F0B1F901F04FFA019BFF
:10287000984232D201F060F902282ED10099380036
:1028800001F0D2F900282AD1174A7B019A18117A4F
:102890000430014207D010720134002E03D0B4423C
:1028A00001D10220FEBD0220104AD118897A0142CE
:1028B00004D00134002E01D0A642F2D00820D21854
:1028C000D289024202D00135032DEBD00120074A04
:1028D000D318DB890342C8D0E4E7FF20E2E70020F9
:1028E000E0E7C04610270000FF500041A00E002086
:1028F000F0B51F000C0087B00CAB02CB04901B7826
:10290000607A02933B8805920193636801220393E6
:1029100000233B80236808335B01800725D53248BC
:102920001B185A7100252368304A5B0199502368AF
:102930002E4E5B019A59012152199A512268059B2A
:102940000498FFF783FF2368012814D10226284A40
:102950005B019B18DA7902405100627AB2430A4364
:102960006272324205D09871E1E71F481B181A7154
:10297000D8E75871DBE7002806D01E4A5B019B1898
:1029800010225A7107B0F0BD1B495A015B015B1858
:102990004021B61872681970019D9204920C9542FC
:1029A00000D915003B88039A5B199BB23B80AA4271
:1029B00002D8019A9A4210D80121022023680C4AB9
:1029C0005B019B18DA791140627A490082430A431D
:1029D0006272102200209A71D4E7029B002BA6D0CD
:1029E000180001F0C9F9A2E700500041A00E002034
:1029F000FF5000410051004104510041F0B585B045
:102A00001D000AAB40CB04001F7800230293039300
:102A10008033019303AB009302ABFFF7CFFE002896
:102A200007D1019700962B00039A02992000FFF727
:102A30005FFF05B0F0BD0000F0B54F6895B01D0018
:102A40007B1E03900C000192DA203F2B4ED801220E
:102A50002368497A08335B01114235D025495B1858
:102A60005A71002023680293002D34D02E00BD42FD
:102A700000D93E0032001A9904A805F0F3F904AA1F
:102A80003100029801F08EF8019B22680221039820
:102A9000FFF7DCFE002812D0022819D0082825D024
:102AA000012818D12368144A5B019B18D979627AEE
:102AB000014082430A436272024219D098711A9B04
:102AC000AD1B9B191A93CDE70A495B181A71C8E729
:102AD000019B012B0AD101212368084A5B019B1845
:102AE0009A79637A0A408B431343637215B0F0BD41
:102AF0005871E4E700500041FF500041005100418F
:102B0000F0B51D008FB014AB1F7815AB1B78160005
:102B1000059316AB1B782A00069317AB1B8803900E
:102B2000079318AB1B880493002309930A937F3300
:102B30009A430AAB01920093320009ABFFF73EFEC5
:102B4000041E49D1402100F0FDFF041E44D16B4614
:102B50001B7D0CAA93706B461B7E5770D3706B461F
:102B60009B8B082193806B461B8A1570D380099B31
:102B7000186801F017F821000A9B32000398FFF74C
:102B800065FE041E28D11A9B6DB20999002B33D023
:102B90000A9A4B7A002D43DA02270A263B434B72EE
:102BA00006ABF6186B461B8A33801A9B0190009384
:102BB00003983300FFF79CFE0122040010420ED060
:102BC00009990B685801224BC01883791A404B7A37
:102BD0005200BB4313434B7220000FB0F0BD0028DE
:102BE000FAD11B9B002B07D01B6831881F681A9AEB
:102BF0000B900BAB1B98B847099B186800F0C8FFF7
:102C0000099A134913685B015B1801215971E90F97
:102C100001310A9B12680398FFF718FE0400DBE7F6
:102C200001252B434B721A9B03980093199BFFF7C6
:102C300003FF041ED0D1099B186800F0A9FF099A70
:102C4000034913685B015B185D712900E1E7C04629
:102C500000510041F7B5890041181F00FC310023E5
:102C600014000D0001900093A8693A000368210048
:102C70005E68089BB0470600E0282ED1002C21D1C9
:102C80008021214A8900138966200B43138101F0BA
:102C900073F8A8693A00036821001E68089BB047D2
:102CA000061E0DD0009B022B1CD9002C22D18023A4
:102CB000154A9B00118966200B43138101F05CF8D3
:102CC0003000FEBD2300019A44339B00D31858689E
:102CD000390003685B699847DBE70028D9D0009B7F
:102CE000022BEDD8642001F047F8009B0133DBB2E2
:102CF0000093B9E7019B4434A4001C1960683900B3
:102D000003685B699847DBE700500041F8B50500B0
:102D10000F1E18D0060000241536FF363068002834
:102D20000DD003681B699847B84208D12000443091
:102D300080002818406803689B689847F8BD0134F4
:102D40000436102CEAD10020F8E730B589B005939D
:102D50009BB20493012300240C9D0293053300933E
:102D600007940695039401947A33FFF7C9FE09B0DE
:102D700030BD30B589B005939BB204930223029312
:102D80000C9B0024DBB2019306230D9D0093079456
:102D9000069503947A33FFF7B3FE09B030BD10B542
:102DA000DBB288B0002401930523079406940594B0
:102DB00004940394029400932300FFF7A1FE0400FF
:102DC0009620400000F0D8FF200008B010BDF8B5F4
:102DD0001F0043690400D725002B1FD03B00581E5D
:102DE00083412000236213000022FFF774FB033DA0
:102DF000061E13D001002000FFF7E3FB0235002878
:102E00000CD00022C760330011002000FFF7C7FF7D
:102E1000051E03D031002000FFF7E9FB2800F8BDB4
:102E2000F0B51F00082391B00993F023039100210E
:102E300008AE9B01338143690BAD04920593466153
:102E40000762122300950A0004000891FFF77DFF36
:102E5000EB797360059B6361002838D106002B89EC
:102E600005936B8906932B790793B5001535FF35CC
:102E700065192868002814D10136102EF5D10026D6
:102E8000B5001535FF3565192868002829D10136A8
:102E9000102EF5D13B00049A03992000FFF797FF0D
:102EA00015E003681B6998470028E5D12868069A51
:102EB000036805999B69984700280AD00097049BEE
:102EC000039A31002000FFF7C5FED128D4D011B0FD
:102ED000F0BD286807990368DB6998470028EDD1A1
:102EE000CAE703681B6998470028D0D12868069A6A
:102EF000036805999B6998470028C8D128680799F5
:102F00000368DB6998470028C1D1049B039A0097A6
:102F100031002000FFF79EFE082203009343D12BCF
:102F2000D5D1B4E70023F7B50700019300F004FE04
:102F30000190019B022B29D0032B0AD0012B0BD12E
:102F4000F023424A11680B40102B05D01123136067
:102F500002E013223D4B1A603D003C001535FF3561
:102F60002E005534FF343068002802D00368DB6837
:102F700098470436A642F6D1344C2368302B42D011
:102F800012D8112B28D0202B34D0F7BDF0232F4C92
:102F900022681340102BDFD100F0B8FE2C4BC83054
:102FA000186020232360D7E7502B34D0802B3ED0ED
:102FB000402BEAD10822274B998B1142E5D09A8306
:102FC0001989F8320A431A815023236000F09EFECB
:102FD0001F4B14301860D8E700F012FD2868002855
:102FE00002D003689B6898470435AE42F6D112239D
:102FF0002360CAE700F08AFE154B1B68C01A302315
:103000000028F5DAC1E78023124A9B0011890B439F
:1030100013814023ECE70F4B9B8B5B07B5D500F08A
:1030200075FE0B4B1B689842AFD98023E0E7002365
:1030300038001A001900FFF7F3FE002803D0A02380
:10304000D228D5D1A1E79023D2E7C04604000020C2
:10305000480600200050004110B5DBB288B00024C3
:103060000193092307940093069405940494039410
:1030700002942300FFF744FD08B010BD0020704704
:10308000007A704710B504004068217A03689B6895
:103090009847002001232072A372E07290342070C0
:1030A00010BD0000234BF7B5083302000360012672
:1030B00000239032416003728672C37203731370EF
:1030C0000C2204009446143401965A425A41D2000C
:1030D00062606246002502275A43256025728218E5
:1030E000557F019EB543BD4355773700002B00D176
:1030F0000F270C2203265A438218557FBF00354004
:103100003D43013355770C34052BDED100290AD01D
:103110000A0000231532FF321468002C04D1443316
:103120009B00C9184860FEBD01330432102BF3D157
:10313000F9E7C0465CBA0000F0B5C7B006AC009233
:103140000194060017000423002240680391FFF752
:1031500010FEC0B2002852D1E278A37812021343C5
:1031600080221D1C5200934200D9151CADB201945F
:1031700000972B00002203997068FFF7FAFDC0B298
:1031800000283CD1631904930C2301009C46049B46
:103190009C4234D2237803936378042B08D0052B08
:1031A00010D0022B01D163797372039BE418EEE710
:1031B00063790021012BF8D1A279032AF5D1337369
:1031C0000131F2E7E578B37C2B40022BEDD1A278F8
:1031D00053B2DB43DB0F00290FD00133277905976A
:1031E00067467B430F27F3183A405A61059A1D77CB
:1031F0009A61B37A0133B372D7E70333EEE747B08E
:10320000F0BD0000084B028A9A420CD1C389202BE2
:1032100007D0362B05D0512B03D0692B01D07B2B47
:1032200001D102238374704735120000F0B58FB0CE
:103230000593812303620300069100210125079273
:103240000222040028334162197029300378AB430D
:10325000934303702300143304932033E562216306
:1032600019702100280035310B78D830AB439343D7
:103270000B70257A002D09D1676829003B6838005A
:103280001B6898470390002802D1D6200FB0F0BDEC
:10329000039BD7201B681E1EF8D0039A049B2900AD
:1032A0001360059BD36009AB2A000093606812236A
:1032B000FFF74BFD06AB9B8A039A238206ABDB8AA2
:1032C000C5B2E3811660002D7ED13B682A005B68A1
:1032D00006991E003800079BB047C2B20300227255
:1032E000D420002AD2D006AAD27C2900A261FF22D3
:1032F000606813402A00FFF752FDC2B206003B6827
:10330000002A0AD0039A3800D560217A9B68984732
:103310003000FF2225721040B8E703991B68CA608D
:10332000217A380098470028AFD0059B0122C3605E
:1033300006AB5E7F217A049B6068FFF7CBF9C5B2CC
:10334000002D41D103232F00A3742000FFF75AFF63
:103350002573BE420CD0217A3A002000FFF7ECFE24
:10336000051E31D1A37A012B02D80137FFB2F0E755
:10337000A37A012B27D9237B002B11D1A36B2362C6
:10338000E36B6362230040331A78183B1A70636C56
:10339000E362A36C236323004C331A78183B1A7042
:1033A000217A049B03226068FFF794F9637A217AFB
:1033B00000226068FFF750FEC5B2002D04D1012342
:1033C000E372280062E7FF25236820009B68984786
:1033D000F7E773B500260D00436A14000B80017AED
:1033E000019600922B00026A4068FFF707FB2B88CA
:1033F000C0B23B2B03D8E6542B88E418667076BD28
:10340000006A7047093948424841704710B50400C6
:103410004068216A03689B689847002020626062C8
:10342000A062E06210BD10B51B02134388B09BB2CE
:10343000002403930123C9B20093079406940594D2
:10344000049402940191016A223322004068FFF73C
:1034500057FB08B010BD10B5002488B0059289B2A2
:1034600092B20693049207940391029401940094FB
:10347000016AA32322004068FFF742FB08B010BD99
:1034800010B51B02134388B09BB20024039303239F
:10349000C9B2009307940694059404940294019190
:1034A000016A203322004068FFF72AFB08B010BDF4
:1034B00073B5002604000D0033000A0011210196A7
:1034C000FFF7B1FF33002A0010212000FFF7ABFF08
:1034D00033002A0004212000FFF7D2FF033601AB9E
:1034E000042229002000FFF7B6FFC0B200280BD14C
:1034F000019A0D4B13400D4A934205D06430013EB2
:1035000000F03AFC002EEAD12A000023142120000A
:10351000FFF789FF2A00002310212000FFF783FF17
:10352000142000F029FC73BDFFFDFFFF0301100014
:10353000F0B59DB00A93036A05000C910D920893B3
:10354000D924002B4CD146680899336830001B6899
:103550009847033C071E43D0036801340993002BAE
:103560003ED02B00083303600B930A9B089AC3607C
:1035700014AB0093110008236868FFF7E6FB089B73
:10358000041EFB6000D09BE03C2206AB9B181B781E
:10359000D134092B24D1043A06AB9B181B78373A57
:1035A0000A9333680C995C6830000D9BA047D424C3
:1035B000031E286214D03F2106AA521812786868A8
:1035C000EA60089A1100FFF7EAFB041E0BD0099B82
:1035D000296A3B60336830009B689847089B2B62E0
:1035E00020001DB0F0BD28226B469B180A9A1B785C
:1035F000202A00D92023099A296A3A600A9ADBB264
:10360000002A4FD10B9B0222296A6868FFF762F8F3
:10361000041EE5D129230827029314AE233B07900B
:1036200003900190009302000696059704979A3341
:10363000296A6868FFF764FA041ED1D1B3780200E2
:103640006B62009001963B00296A6868FFF791FB66
:10365000041EC5D17388020000900196296A68682B
:10366000FFF787FB041EBBD10EAA3378296A0192AB
:10367000009002006868FFF77CFB041EB0D10200D6
:103680007379296A6868FFF7E7FC041EA8D16B6AA2
:103690000134A34210D30023220008212800FFF7A1
:1036A000EFFEF4E714AA009268680022FFF74DFBD2
:1036B000041E00D094E7A5E701230024EB628FE706
:1036C000099B3B608CE700000822C260F022124B8D
:1036D0009201028201220833036000234261826169
:1036E0000E4A10B54160036243628362C362836025
:1036F0008283994209D00A001532FF321468002CE7
:1037000004D144339B00C918486010BD0133043212
:10371000102BF3D1F9E7C04684BA0000030400007F
:10372000F8B5140013785278050012021A43A378F2
:103730000E001B041A43E3781B061343324A9342DC
:103740002DD007D8314A934245D0314A934226D0F2
:1037500000243EE02F4A934202D02F4A9342F7D1F1
:103760000023320014212800FFF75DFE0023320001
:1037700010212800FFF757FE142000F0FDFA8022E8
:103780006378002492001B0213402A6A686851077C
:10379000490F3200FFF744FB204B1C7019E0002456
:1037A0001E4F3B78A34214D1230032001121280080
:1037B000FFF739FE2300320010212800FFF733FE07
:1037C0002300320004212800FFF75AFE0123B13400
:1037D0003B702000F8BD00240A0000231121FFF7F0
:1037E00022FE3200002310212800FFF71CFE0B4BA5
:1037F000296A1C70072319401E40C90031436868BC
:10380000FFF784FAE5E7C04601030100000101006B
:103810000101010003011000030310004C06002009
:103820000A23F0B50022012487B06B441C8001926A
:1038300004AA00920500016A22004068FFF7DEF842
:10384000002817D102266B461B7C1E4214D0002391
:1038500004220393210003AB2800FFF7FCFD071EA1
:103860000AD103AA21002800FFF75AFFB1282ED061
:10387000002801D007B0F0BD01347600082CE2D159
:10388000073C6B6A0020A342F4D303AE03903300DD
:10389000042221002800FFF7DEFD071E15D10222B9
:1038A00008213388FF31FF320B4093420DD17388DA
:1038B000013AFF3A13432100320028007380FFF7DA
:1038C0002FFFB12803D00028D4D10134D9E7380024
:1038D000D0E7C36A70B50400002B02D10025280090
:1038E00070BD00F013FAA36AC01AF7D42000FFF7E6
:1038F00097FF050000F00AFA6430A062EFE70000CD
:1039000010B5024802F0B1F810BDC04650060020C4
:1039100013B51249124800F0F1FC1249124800F0A8
:10392000EDFC1249124800F0E9FC1249124800F07F
:10393000E5FC124C1249200000F0E0FC114912484D
:1039400000F0DCFC002301930133009307220533D0
:1039500021000E4801F0F8FF13BDC04600080042E8
:103960008C080020000C004290080020001000424B
:103970009408002000140042980800209C080020B1
:1039800000180042001C0042A00800205006002041
:10399000194B1A78D2092ED004219A8B92B20A427E
:1039A00004D099830222154B1A70704708210A42ED
:1039B00003D09983114B0122F6E740210A42F8D146
:1039C00020210A42F5D110210A42EAD180210A427F
:1039D000EFD180218020490080000A4204D09983E1
:1039E000998298831883DDE70242DED0988398821B
:1039F00099831983DEE7FEE700500041A408002008
:103A000070B5424800F07CF92023414A0F20D1696B
:103A10000B43D361062100F095FB0621102000F036
:103A200091FB3C4B3C4A5A805A7852B2002AFBDB4D
:103A300001233A4C227813432370A378DB07FCD48C
:103A400082222378134323702378023A134323708E
:103A5000A378022BFCD01F21314A13685B0B0B406B
:103A60008B4200D10523208D2E4D0B409B01284019
:103A70000343238513689B0C0B401F2B00D1023B93
:103A80001F20218D034081430B43072123851368A9
:103A9000DB0D0B408B4200D10323228D0B402249CA
:103AA0001B030A40134323850423227880251343F4
:103AB0000C221E482370606223896D00934323818A
:103AC0002A00002104F0EAF90022194B01210E20FE
:103AD0001A7000F0DBFA01210E2000F007FB102322
:103AE000258325832383F133FF3323838023C1215F
:103AF0002289DB0013430F4A2381890053581B029C
:103B00001B0A53508023136070BDC04691390000DA
:103B100000040040000C004006400000005000413E
:103B2000246080003FF8FFFFFF8FFFFFA00E002002
:103B3000A408002000E100E0014B18787047C0465F
:103B4000A40800200D4B00211B7B5B0700D4033130
:103B500038220B480907437893431A00082313437C
:103B6000084A437093890848034093815368074883
:103B700003400B43002053607047C0460050004193
:103B8000FF500041A00E0020FFF0FFFFFFFFFF8F5E
:103B900043010348C01843689B0B9B034360704775
:103BA000A00E0020074B4001C2501818436889043A
:103BB0008A0C990B8903114341604368024A134000
:103BC00043607047A00E0020FF3F00F00300F0B5F7
:103BD00003260F00124D08335A01545D3740B44399
:103BE0003C435455002907D10E4A40018018102249
:103BF00002723032827105E0012909D10849521858
:103C000040211171064A5B019B1810221A71F0BD08
:103C1000044A40018018012202723F32EAE7C0469E
:103C200000500041FF500041012911D0002903D06C
:103C3000022917D0002109E0114A43019B181022E4
:103C4000187A104202D01A729A7101210800704746
:103C50000B4A43019B181A7A0A400FD0102219729E
:103C60009A71F3E70122064B4001C318187A00212C
:103C70001042EBD010311A729971E6E71100E5E7B6
:103C8000FF500041FEE70000034B10B51B68002BFE
:103C900000D0984710BDC046A808002070B50F4955
:103CA0000F4CA14204D100F08DF801F0B5FFFEE702
:103CB0000C4D00238D42F6D0CA18E818A24205D355
:103CC000094B8242EFD00949002204E00068043326
:103CD0001060F1E704C38B42FCD3E4E7000000204E
:103CE00074020020CCC0000074020020A40F002049
:103CF00010B500F064F8002801D100F055F810BDAF
:103D0000014B18607047C046A8080020014B186896
:103D10007047C046AC080020F7B51348012284461E
:103D20001249134C8E68636805689B0E134001921C
:103D300088686268019F920E3A4067463F689342E6
:103D40000ED1BD420CD186420AD35B19FA254868D0
:103D5000AD00861B07486B437043000DC018FEBDC5
:103D60003D0013000600E3E7AC08002010E000E08F
:103D700000ED00E05555000070B5041E10D0FFF7AF
:103D8000CBFF050000F01AF8FFF7C6FF054B401BFC
:103D90009842F7D9FA23013C9B00ED18002CF3D18F
:103DA00070BDC046E703000010B5034A1368013335
:103DB000136000F065FA10BDAC08002070470020C9
:103DC000704700001E2270B5464847494368934338
:103DD0001C3A1343436008238C6923438B61434C93
:103DE000434B9C829C8A14439C82DC681442FCD026
:103DF0000124404A14701578254203D055786DB2DD
:103E0000002DF8DB01249460547864B2002CFBDBB5
:103E1000394C5460547864B2002CFBDB8224E401FA
:103E20005480547864B2002CFBDB02249C840E3452
:103E3000DD682542FCD0314CDC621024DD6825426F
:103E4000FCD09D8C2E4C2C439C841024DD68254294
:103E5000FCD002249D8C80262C439C844024DD6869
:103E60003542FCD0DD682542F9D01024DD682542BA
:103E7000FCD000249460547864B2002CFBDB214C0D
:103E80005460547864B2002CFBDB1C6A1E4D2C403D
:103E900080251C621C6AAC431C62032393601B4B8D
:103EA000536053785BB2002BFBDB0023FF240B72C3
:103EB000174A4B728B72CB72164B1A60164B174A0D
:103EC0001B6811689A065B01C90E2340520F12024B
:103ED0000B431343124A1385802342681343436004
:103EE00070BDC04600400041000400400C060000C8
:103EF00000080040000C004001050100B905FF7DED
:103F0000040A000000070300FFFCFFFF0306010096
:103F1000006CDC020800002024608000206080002B
:103F200000400042FA212D4B10B51868890001F0BD
:103F300065FF2B4B013898424FD82A492A4A4860DE
:103F4000C020136A00061B021B0A034313620023EE
:103F50008B6007330B608021136A09061B021B0A62
:103F60000B431362FC22214B196A0A431A62FF2297
:103F7000196A12020A431A62A022196AD2020A437B
:103F80001A621B4B1C005A7852B2002AFBDB194AFA
:103F90005A80194B1A00597EC9090129FBD0C82142
:103FA000890099800521D970537EDB09012BFBD054
:103FB000C02300205B011361907000F023F8637848
:103FC0005BB2002BFBDB0D4B0D4A6380D379DB0921
:103FD000012BFBD04123537010BDFEE708000020E9
:103FE000FFFFFF0010E000E000ED00E000040040F3
:103FF000000C00401E400000004000422140000034
:10400000004800421F4900B50B004A7ED209012A30
:10401000FBD001380A282FD801F0E6FE1B2E2E2EE9
:104020002E2E062E2E2411001A6917490A400F2140
:104030001A615A788A43110001220A4310E01A6972
:1040400011490A400F211A615A788A43110003224C
:10405000F3E71A690C490A400F211A615A788A431A
:104060005A7000BD1A6908490A400F211A615A782E
:104070008A4311000222E0E7F022196912050A437F
:10408000F3E7C04600400042FFFFFFF0182310B5E1
:1040900008244343134AD0180457013412D0012492
:1040A0009A5643689C4003290CD808000E49D20157
:1040B0005218D318403301F097FE0210060B02216C
:1040C0001970546010BD0621197054609461F9E7AD
:1040D0000621197054605461F4E70221197094604C
:1040E000F0E7C046ACBA0000004400411823F0B528
:1040F00008245843114A13181C5701341BD00126B9
:1041000035005F688356BD400D4ADB019A18906800
:1041100005420BD10C00601E8441D2194032107848
:1041200034400336A400B04320431070044A9B1867
:10413000002901D15D61F0BD9D61FCE7ACBA0000D2
:10414000004400411822424370B52D4E0300B218BE
:10415000127A52B2140001320ED0481C00240C28EE
:104160000AD801F041FE071F1F1F1F1F1F1F1F0B33
:104170000B0B0B0001246442200070BD092905D1FE
:1041800000211800FFF782FF0024F5E70A2901D17A
:104190000839F6E700240B29EED10A391800FFF799
:1041A00075FFE9E7182201205343F218F3565568CA
:1041B000144ADB016C089B18C9B228401C1900285E
:1041C0000ED00F20303422780901024011434122E1
:1041D000C9B25B192170403319780A431A70D3E7CA
:1041E00022000F26303214785B19B443214311703A
:1041F00041224033197804000A431A70BCE7C046D4
:10420000ACBA000000440041F7B506000D000C00F8
:104210008B180193019B671B9C4207D03368217860
:104220001B683000984701340028F3D13800FEBDE8
:1042300070B5040008000D0004F072FD2368020050
:1042400029005B682000984770BD10B50B1E02D096
:10425000FFF7EEFF0300180010BD10B5FFF7F5FFE4
:1042600010BD0000014B18607047C0460C000020D4
:104270000122024B52421A607047C0460C000020D7
:10428000164A10B51368591C26D0013B1360002B49
:1042900022D172B6124B134A0433934213D9124AF5
:1042A00001211000147D0C42FCD02021148BFF3121
:1042B0009B085B0021431183D3610C4B13800123C6
:1042C000027D1A42FCD0BFF34F8F094B094ADA60D6
:1042D000BFF34F8FC046FDE710BDC0460C00002065
:1042E00000200000030200000040004102A5FFFF83
:1042F00000ED00E00400FA0510007047016070470F
:104300009446F0B59E1E721E96416246056892075D
:104310002F6836063A4332432A60072505AC2478D5
:104320000068A4012940214342680024022B00D0E8
:104330005C03114321434160F0BD30B5C0250368E3
:10434000AD031C6812052A402243C0240904A402BC
:1043500021401143196003685A6814435C6030BD02
:104360000123026811680B43136003681A68D207BF
:10437000FCD4DA69D207F9D47047022302681168C5
:104380000B4313600268D3699B07FCD47047036832
:104390001A7ED20702D41A7E9207FCD570470022FB
:1043A00003685A8370470368187E4007C00F704740
:1043B0000368187EC0097047802302685B42117E43
:1043C0000B43137670470368588B8007C00F704704
:1043D00002230268518B0B43538370470368187E96
:1043E000C007C00F70470368188DC0B270470368DC
:1043F0001A7ED207FCD589B20120198570470122A7
:1044000003689A757047012203681A7570470000A7
:104410000368104A934213D00F4A934212D00F4AB6
:10442000934211D00E4A934210D00E4A93420FD0BD
:1044300001200D4A4042934201D1063040B27047FC
:104440000020FBE70120F9E70220F7E70320F5E76A
:104450000420F3E700080042000C00420010004274
:104460000014004200180042001C0042F8B5FFF79B
:10447000CFFF00282CDBC3001C48FF22C0180523F7
:104480000479C35603201840C0008240C021D243A3
:104490008140002B1DDB1F2501201D40C026A840A8
:1044A000134D7600A851C0269B089B005B19B600EF
:1044B0009F593A401143995128603F23234080245B
:1044C000E4011C430B4B5C805A7852B2002AFBDBA0
:1044D000F8BD0F200340083B07489B089B001B18B2
:1044E000D86902401143D961E7E7C04644BC0000E7
:1044F00000E100E0000C004000ED00E0F8B5040031
:104500000F0016001D00FFF7B1FF2000FFF728FF86
:104510001C21BB000B4071072268090C0B43136080
:10452000842322689375012F1AD11021012E00D007
:1045300008390C4B69431868C00001F05FFC072282
:10454000216802408B895203DB04DB0C13438B810F
:10455000226803049089DB0C400B400318439081D0
:10456000F8BDC046080000203F20704713B56B46D9
:104570000268D9710733546819000122A04716BD9B
:1045800010B50221006900F007FD034B1B680133E1
:104590005A1E9341181810BD6000002010B5032169
:1045A000006900F00FFD10BD10B50321006900F097
:1045B000D7FC10BD10B5054C23685A1C04D1036804
:1045C0005B69984703002060180010BD6000002060
:1045D000074B0200186810B5411C03D0012252425B
:1045E0001A6010BD0221106900F0D6FDF9E7C0463F
:1045F0006000002010B51300094A0400D079C0B251
:10460000002805D1627E002A02D00123636006E003
:104610000A002069032100F0CDFD0028F5D010BD6F
:104620001400002010B503784222023303700249BF
:10463000024800F06BFE10BD1C000020CC080020DA
:1046400010B50178020043780020A12908D1212B60
:1046500005D107221649174800F058FE012010BD69
:104660002129FCD1202B13D107221149114800F038
:10467000EDFC96220E4BD200196891420ED1012416
:10468000D87904400AD1FA20FFF7ECFD0020E6E7D4
:10469000222B06D19278064BDA71EAE7FFF7E8FDA4
:1046A000F4E7232BDBD15288034B1A60D7E7C046CF
:1046B00014000020CC08002010000020FA22002165
:1046C000054B92009A60054A596008321A60044A04
:1046D00019761A617047C046B008002074BC00000B
:1046E000CC0800207047704770B50F26CB1D0139EC
:1046F00002003240D5B22C0000093034092A00DD16
:1047000007341C70013B8B42F2D170BDA02110B563
:104710000400490001F063FB200010BDF8B5032937
:1047200008D1304B8000C058002802D003689B6835
:104730009847F8BD822919D1C3B22B4D5A01AA1846
:1047400091692A4C80010C40C02189052143916167
:104750002749083340187021506128685B011A5CB2
:104760008A43110030220A431A54E2E70029E0D1BB
:10477000C026C1B21C4C4B01E3189A681B4DB6050C
:104780002A4032439A601B4A800182185A600A000C
:104790000727246808325201115DB9430F00012137
:1047A000394311559F6912493D4040182E439E617F
:1047B00058617020115D814308001021014311559B
:1047C00099680D48A2180840802149030143996067
:1047D0009968890B89039960402311790B43137100
:1047E000A7E7C046D0080020840D0020FFFFFF8F00
:1047F000F8080020B80A0020FF3F00F0EFF3108314
:1048000003600123436072B670470368002B02D136
:1048100062B6BFF36F8F7047F7B50500FC35EB69E3
:104820000600002B18D196277F00C45D6846FFF76D
:10483000E5FF019BE4B2013B02D3F45DE4B2FAE789
:1048400068460193FFF7E1FF002C01D10020FEBD77
:10485000E86AAB6AC01AFAE76846FFF7CFFF9E2204
:104860000024019B5200013B02D3B45CE4B2FAE79E
:1048700068460193FFF7C9FF002CE7D0E86BAB6BEC
:10488000E8E7000030B54468FC3043698069DBB27A
:104890005A01A2189168094D80042940000901437A
:1048A000916091680833890B8903916022685B01EC
:1048B000D318402219790A431A7130BDFF3F00F026
:1048C000F7B50500FF21FC356A6943680A401B689B
:1048D000083252019A18D3790400DB0754D5012617
:1048E000D6716B6962680B405B01D318286A9A68BD
:1048F0009204920C002822D1EA62EA6A002A40D08F
:104900006A6B2E6268465A60FFF778FF9E273E2149
:10491000019B7F00013BFF315A1C2ED09622520092
:10492000A654E25D581ED2B2002A05D066546846ED
:104930000193FFF76AFFF7BD62540300ECE7EA63F7
:10494000EA6B002A1DD000222A626A6A68465A6011
:10495000FFF754FF96273E21019B7F00013BFF316B
:104960005A1C0AD09E225200A654E25D581ED2B2B2
:10497000002ADBD162540300F2E768460193FFF797
:1049800044FF2000FFF77EFF63681A686B69DBB2A3
:1049900008335B01D3187F22DA71CCE7F7B5070043
:1049A00068463C00FFF72AFF0026FF22019BFC34EB
:1049B000013B0DD3E0682169884204DBE668206989
:1049C000961B3618F4E72669E168761A013EEFE790
:1049D00068460193FFF719FFE3696846002B52D13F
:1049E000FFF70CFF9621019B4900013B5A1C0CD09C
:1049F0007D5C5A1EEDB2002D05D168460193FFF78C
:104A000004FF2800FEBD1300F0E76846019300256F
:104A1000FFF7FBFEFF21A36AB54214D0E26A9A4277
:104A200011D95A1CA262626AD3181878E368226905
:104A30000133C0B20B40934203D0E268BA1810723F
:104A4000E3600135E7E7E26A9A42DAD10023A36224
:104A50000133E36168469624FFF7D0FE64003E22EE
:104A60000021019BFF32013B581CC6D03955B85C70
:104A70005E1E002805D0B95438000193FFF702FFED
:104A8000EDE73300F0E7FFF7B9FE9E21019B4900F7
:104A9000013B5A1C06D07D5C5A1EEDB2002DACD0F5
:104AA0001300F6E7684601930025FFF7AEFEFF21ED
:104AB000A36BB54202D0E26B9A421DD8E26B9A42D8
:104AC0009FD100236846A363E3619E24FFF796FE0F
:104AD00064003E220021019BFF32013B581C00D1A3
:104AE0008BE73955B85C5E1E002817D0B9543800E2
:104AF0000193FFF7C7FEECE75A1CA263626BD31861
:104B00001878E36822690133C0B20B40934203D0A6
:104B1000E268BA181072E3600135C9E73300DDE7D7
:104B200010B50400FFF73AFF2300FC331969DA6877
:104B3000914203D01B69E418207A10BD0120404245
:104B4000FBE710B50400FC34FFF728FFE068236999
:104B5000C01A01D50130FF3010BDF0B585B001920B
:104B600000910500FFF71AFF02A8FFF747FE01209A
:104B70000024FF26039B40425A1E531C1FD02B00CB
:104B8000FC3301998C4218D2D9681F69C91B01D521
:104B90000131FF31002910D01969DF688C4601000E
:104BA000BC4506D019691F69691801373740097A71
:104BB0001F61009F39550134E3E7013ADDE702A8A0
:104BC0000392FFF722FE200005B0F0BD37B56B461B
:104BD000DC1D00230D0020002370FFF723FD2B6850
:104BE0001818286001F09AF8210001F053F82B689A
:104BF0001818286020783EBD02220B0010B59343A0
:104C00000C00012B0BD10D4B08341B6864011C19DF
:104C1000802321795B420B432371E27110BD01F0C7
:104C20007DF8210001F06AF80028F7D0034B083422
:104C30001B6864011C197F23E371EFE7840D0020DA
:104C400070B50024374B012105000B201C70FFF7C5
:104C50001DFA01210B20FFF749FA334B01210C20EB
:104C60001C70FFF713FA01210C20FFF73FFA2023F5
:104C70002E4A0F20D1690B43D36101222C490B78B6
:104C800013430B702B4B19788143197006211C7844
:104C90002143197028490C7822430A701A7802407F
:104CA0001A70602219780A431A70244B244A5A80D9
:104CB0005A78D209FCD12348FFF722F8224C7F26EC
:104CC000200001F03DF8200001F052F80C210823EB
:104CD0002068C2788A4313430322C3702068C378D4
:104CE0009343013A1343C370206803783340037041
:104CF00004232068067833430370206803898B43BC
:104D00000381C120114980000B581B021B0A0B5064
:104D100080230B60236819780A431A7001232B70D3
:104D200070BDC046ED080020EC08002000040040E3
:104D3000584400413C44004159440041000C0040AB
:104D4000064000007D570000840D002000E100E0D7
:104D50000078002810D00121084B1B681A898A436B
:104D60001A810822198B0A431A830422198B0A43D9
:104D70001A830022024B1A607047C046840D00203F
:104D80007C0D002010B50F4A93699B0B9B03936128
:104D900013680222FF331A729879823A02439A7199
:104DA0001A7A9207FCD57F24074A2140937A08009B
:104DB000A3431900802301439172917A5B420B4314
:104DC000937210BD840D00200050004110B50B7986
:104DD0000C00002B0CD10800FFF732FC002801D09A
:104DE000012010BD094A93699B0B9B039361F7E770
:104DF00000F094FF210000F071FF0028F0D1034A79
:104E000093699B0B9B039361EBE7C046840D0020E5
:104E1000F8B50D00832A19D1CBB2434C5A01A21820
:104E200091694248AD010840C02189050143916163
:104E30003F4920686D187021083355615B011A5C89
:104E40008A43110040220A431A54F8BD022A65D150
:104E5000384B8A00D058002802D003689B699847D5
:104E6000A020400000F0F0FE80270600324B7F00BB
:104E700003602D4B002143603A00083003F00EF828
:104E8000340096220023FC345200E360A3622361C5
:104E90006561E361A7612362E362B3541032A363E7
:104EA000E363B3543E223800FF32B35402F0B4FF40
:104EB0006062380002F0B0FF2B006063FF201A49E7
:104EC00003405A018A189168184F08330F40C021D7
:104ED0008905394307279160134A5B011168AD00CA
:104EE0005A5CBA43170003223A435A546169736803
:104EF000014049015918636A4B60736862691B6815
:104F0000024052019B1801221B18997A30000A4373
:104F10009A72FFF7B7FC074BEE5096E71100280096
:104F2000FFF7FCFB91E7C046840D0020FFFFFF8FD9
:104F3000F8080020D0080020A4BC000070B50500CF
:104F40000124064BA200D258002A06D021002800D6
:104F50000134FFF75DFF0A2CF3D170BD640000201F
:104F60000B4BCAB20B488901C9185301C3185961C8
:104F700099690832890B89039961036852019A186B
:104F80000223D3715179823B0B4353717047C04662
:104F9000F8080020840D0020084B8A00D05810B576
:104FA000002803D00368DB68984710BDC9B2044BE2
:104FB0004901591888688004800CF6E7D008002061
:104FC000840D002010B50C00FFF7E6FF00280CD080
:104FD000064BE4B21B68083464011C198023627913
:104FE0005B42134363710223E37110BD840D002003
:104FF00070B5CBB2124A13485C01890189180219B5
:1050000051609168104D08330D4080218902294379
:10501000402591609168890B8903916001685A016C
:105020008A1816793543157195796D06FCD55B01A3
:10503000C918CB79DB07FCD500198068C0B270BDF8
:10504000B80A0020840D0020FF3F00F070B5140066
:1050500040220B4B0D001B68FF3359790A435A71EC
:105060000021FFF7C5FFA04200D920000023054919
:10507000A34203D0CA5CEA540133F9E770BDC046CD
:10508000840D0020B80A002010B5C9B20B484901B0
:10509000421893689B049B0C3F2B0BD99468403BB0
:1050A0009B04A40B9B0CA4032343936041188868C2
:1050B000C0B210BD93689B0B9B03F6E7840D0020E4
:1050C000F0B51C002F4B85B01B6806000D00019247
:1050D000002B54D02C4F3978C9B2002902D10C20B2
:1050E000FFF704F864233B70284BAA00D05800282F
:1050F00008D0036822005B680199984704002000EB
:1051000005B0F0BD29003000FFF746FF844204D906
:1051100029003000FFF740FF040029003000FFF7AE
:10512000B3FF0121EBB21A4F03935B010293029A82
:105130003B6801989B18FF335A7A0A435A72154B01
:10514000A901C918220002F08DFE002CD7D0290039
:105150003000FFF721FF0028D1D14021039B3A689E
:1051600008335B01D3181879014319710121D971F2
:10517000029BD318FF339A7A0A439A72BFE701243D
:105180006442BCE77C0D0020EC080020D008002021
:10519000840D0020B80A002013B56B46DC1D2200E8
:1051A0000123FFF78DFF012801D1207816BD0120D2
:1051B0004042FBE7F0B51E003A4B85B01B680F007C
:1051C0000192002B3FD08023DB019E423BD8364C1E
:1051D0002178C9B2002902D10B20FEF787FF642392
:1051E00000252370314BBA01D3180293002E2CD026
:1051F0002F4B1B680393FF233B401C000093083494
:10520000039B64011C19A379DB0921D0294B2A498E
:10521000186800F0F3FD294B1721584300F0EEFD0C
:10522000274BE279920713D4DA5D002A01D10138C5
:10523000F7D20122DA55009B5A011D4B9B189A693F
:10524000920B92039A6101256D42280005B0F0BDD2
:1052500000221B4B3400DA55402E00D94024220096
:105260000199029802F0FEFD009BA1045A01104B27
:10527000890C9B18029A2D195A619A69361B920B58
:1052800092030A439A61009B039A08335B01D31887
:105290000222DA715979823A0A435A71019B1B1929
:1052A0000193A3E77C0D0020ED080020F808002002
:1052B000840D00200800002040420F007011010002
:1052C000EF08002070B50D001C000D4BAE01F61864
:1052D00011003000220002F0C5FDEDB209496D0158
:1052E0004D196E61AB69084A20001340AB61AB6990
:1052F000A2049B0B920C9B031343AB6170BDC04691
:10530000F8080020840D0020FF3F00F0F7B5104B97
:1053100001901B780F001500002B0CD10D4B1600CF
:105320001C78002C09D00C4E0C48348820186419C5
:1053300002F098FD34802800FEBD002EFBD03A1903
:10534000330000210198FFF7BDFF2418361AF4E757
:10535000780C0020790D00207A0D0020790C0020B7
:10536000F8B5002000AF0E001500012A27D9D31D83
:105370006A46DB08DB00D31A9D46080003F0D0FC28
:105380006C4603230222002101304000207063702C
:10539000AA420DD2307800280AD0531CDBB2013665
:1053A000A0549D4203D00232E154D2B2F0E72A0069
:1053B00021000448FFF7AAFF431E9841C0B2BD4632
:1053C000F8BDC046CC080020F0B50024012685B009
:1053D000184B0F0069461E7005000094FFF7F6FB9E
:1053E000154B01A90B806A3BFF3BCB716E3B0B72E7
:1053F000009B8C7109334B800E4B4E7108711C70F1
:105400003A00092F0FD00D4F09223E700C4E280094
:1054100000943480FFF77AFF69462800FFF7D6FB37
:10542000328808493C702800FFF770FF012005B062
:10543000F0BDC046780C002009020000790D002064
:105440007A0D0020790C0020F0B5CF7893B00500DC
:105450000E00022F09D1C9882D48FFF7B5FF441E61
:10546000A041C4B2200013B0F0BD00F057FC3100E1
:1054700000F024FC002803D0C417241AE40FF1E73D
:10548000012F0FD1F288082A0AD02249112A13D8F5
:10549000D2B2002A10D02800FFF738FF0124E1E73C
:1054A0001D49F5E70400032FDCD1B378002B05D1AB
:1054B000F2881A49032AEBD90A78ECE7022B06D1C5
:1054C000B27917492800FFF74BFF0400CAE7012B08
:1054D00002D1B2791349F5E7032BC3D1124B01A9CD
:1054E0001868FFF701F9114B03A91868FFF7FCF8DA
:1054F0000F4B05A91868FFF7F7F80E4B07A91868B6
:10550000FFF7F2F86B460533DC77B27901A9D9E7EA
:10551000CC080020DCBC0000EEBC0000D2BC0000C7
:10552000C4BC0000D6BC00000CA0800040A08000DD
:1055300044A0800048A0800037B5040048780D00E2
:105540000B2810D800F050FC061B0F2B0F40456DA8
:10555000494C6669097801AA002906D10223118005
:105560002000FFF7AFFE01203EBD002313802E4B2D
:105570001B78012B00D1137002230021F0E78A78F9
:105580000023012A03D101AA1380284BF0E7264A01
:105590001370274A93699B0B9B039361E3E78D7814
:1055A000012D06D10021214B01AA1D7011702B0085
:1055B000D6E70120002DD7D11B4B1D4A18709369E7
:1055C0009B0B9B039361CFE789782000FFF7DAFB01
:1055D000C9E72000FFF738FFC6E70123154ACCE7EB
:1055E0000B780020DB06BFD12000FFF7A7FC2A20A4
:1055F000AA78104BFF301A6002230D4A11680C5C28
:1056000023434A240B54FF340B5D2938FF380343EE
:105610000B55D4E70123084AAFE78A78064B1A6096
:10562000B7E70020A0E7C046EE080020F6080020FB
:10563000840D00207C0D0020800D0020474BF7B525
:105640001C780600002C7CD1454D2B689B8B1B07DA
:105650000ED521002000FFF761F82A681023110001
:10566000FF31887A03438B723E4B1C60082393837F
:105670002B689A8B52071FD504229A833A4A1378D3
:10568000002B0AD01378013BDBB213701378002B88
:1056900003D101210B20FEF729FD344A1378002B9A
:1056A0000AD01378013BDBB213701378002B03D1BF
:1056B00001210C20FEF71AFD2B68FF331A7AD2065F
:1056C0001ED510221A72597930320A435A7160235A
:1056D000274930000A781A4234D1FFF72DFF2B6892
:1056E000FF33002831D08022997952420A439A71BF
:1056F0001A7A520604D540221A72597A0A435A720B
:10570000012427002B681B8CA343DBB20193019B70
:1057100023413B4212D023002A6808335B01D3188F
:10572000DA79D20702D4DB799B0707D5114BA200A7
:10573000D05800280DD003681B6898470134082C06
:10574000E5D1F7BDFFF742FBC9E720210A4A917175
:10575000CEE7E1B23000FFF74FFAEFE7790D002016
:10576000840D00207C0D0020ED080020EC080020B6
:10577000B80A0020D0080020FF50004110B50248B0
:10578000FFF75CFF10BDC046CC080020014B024A69
:105790001A607047840D00200050004101207047BE
:1057A00010B50368014A1B6A984710BD1304000036
:1057B0000300FC33D9699A69914203D0DB69C018B0
:1057C000007D704701204042FBE710B504000069EE
:1057D000FEF7C6FD22000023FC329361D3618622CE
:1057E0009200A4186360A36010BDF020014030391E
:1057F000484248417047F0231B011940802306208E
:105800009B0099420AD00133FF330130994205D001
:10581000802302385B00994200D0002070470F209F
:1058200001400020012903D00239481E8141481C53
:10583000704700008923F0B5182685B002919B00BF
:105840000400C05C330008214343324D1700EB18BD
:105850005956FEF777FC304B0821E05C3300434398
:10586000EB185956FEF76EFC2C4BE25C0393022AB0
:1058700009D11133E05CFF2805D008214643AE1959
:105880007156FEF75FFC8A26B600A05DFF2819D08E
:105890000121FEF7FBFB1822A35D21495A43AB56B9
:1058A000AD18DB0158188B21890060501D49012279
:1058B0005B188C218900635069688A408D218900BA
:1058C00062501A600122029B11002069FEF716FE49
:1058D00039002000FFF78FFF390005002000FFF797
:1058E0009EFF390006002000FFF77FFF3300009085
:1058F000290020690122FEF703FD0B4B2069E25CC1
:10590000039BE15CFEF719FD2069FEF736FD05B04B
:10591000F0BDC046ACBA000025020000270200001E
:10592000184400411444004126020000802210B5B2
:1059300004005200002102F0B1FA23000022FC33DF
:105940005A6020009A6010BDF7B51D0008AB1B78A7
:105950000400009309AB1B781600019300234360F9
:10596000FA239B008360114B0F000833036014304F
:10597000FFF7DCFF20001D30FF30FFF7D7FF892342
:105980006A469B002761E654094B1278E554094B9F
:105990002000E2546A46084B1279E2548A22293BDD
:1059A000FF3B9200A3541032A354FEBD00BD000083
:1059B0002502000026020000270200000300FC333D
:1059C00059689A68914204DB5A689868801AFF30D7
:1059D000704798685B68C01A0138F9E710B51D3048
:1059E000FF30FFF7EBFF10BD030070B5FC33D96942
:1059F0009A69040091421AD0DA698218157DDA6931
:105A00000132D2B2DA618A239B00E35CFF2B0CD017
:105A100020001430FFF7D2FF0A2806DD8C238D22E8
:105A20009B009200E358A2581A60280070BD01251F
:105A30006D42E8E70300FC3358689B68C01A01D543
:105A40000130FF30704710B5040020001D30FF30DA
:105A5000FFF7F0FF0028F8D12069FEF798FC10BD91
:105A600010B51430FFF7E6FF10BD10B50400006953
:105A7000FEF7A9FC002805D02069FEF7B4FC2069D8
:105A8000FEF7A6FC2069FEF78EFC002820D02069D6
:105A9000FEF7A9FC2200FC329369D1690133DBB225
:105AA0008B4203D091696118087593618A239B002A
:105AB000E35CFF2B0CD020001430FFF77FFF092898
:105AC00006DC8B238D229B009200E358A2581A60BB
:105AD0002069FEF783FC00281AD020001D30FF301B
:105AE000FFF7A8FF002822D086239B00E3189968BF
:105AF0005A68914218D08E219A684900A218515CC8
:105B00009A680132D2B29A60C9B22069FEF76FFC7E
:105B10002069FEF74DFC002805D02069FEF74CFCFB
:105B20002069FEF73CFC10BD01214942ECE72069E9
:105B3000FEF769FCECE7000070B5040000690D0099
:105B4000FEF74CFC00283ED1FF2686239B00E3187D
:105B50005A689968013232408A4223D1EFF31083A8
:105B6000DB070DD41E4B5B68DB05DB0DEDD0103B76
:105B70005BB2002B0DDB9B08C0331A4A9B009B587D
:105B80002069FEF72BFC0028DFD02000FFF76DFF17
:105B9000DBE70F221340083B9B08134A9B009B182E
:105BA0001B68EDE75A68013216409A68964205D0A4
:105BB0008E215A684900A21855545E602069FEF78C
:105BC0001EFC012070BD20001D30FF30FFF732FFAA
:105BD0000028B9D129002069FEF709FCF1E7C04689
:105BE00000ED00E000E100E01CED00E07047000087
:105BF00010B5FCF785FAFCF7C9FAFEF7DFF8034B9E
:105C0000002BF8D000E000BFF5E7C0460000000020
:105C100010B5FFF7EDFF000010B5FEF783F902F0B5
:105C2000D3F8FFF7E3FF0120FEF7A6F8054C2000AC
:105C3000FFF706F82000FFF78BF8FFF7E9FF0020D9
:105C400010BDC046CC08002010B502F0E5F810BD2C
:105C500010B502F0EBF810BD10B50200EFF31081A3
:105C600072B60A4B1868002801D1094818601868F4
:105C70008218EFF30884A24204D21A60002900D1EE
:105C800062B610BD01204042F8E7C046880E0020F1
:105C9000A40F002070B50E0000254468002C0BD026
:105CA000236831005B6820009847002802DB2D182C
:105CB000E468F3E701256D42280070BD70B50D0062
:105CC0004468002C08D0236829009B68200098476E
:105CD000002802D1E468F4E7200070BD70B50D0023
:105CE0004468002C08D0236829001B6820009847CE
:105CF000002802D1E468F4E7200070BD70B50D0003
:105D00004468002C08D023682900DB6820009847ED
:105D1000002802D1E468F4E7200070BD0121054AA3
:105D200010B5136804480B4003D1044C4360048051
:105D3000116010BD8C0E0020900E002002040000A7
:105D400070B50400012304CC0500117820000B433A
:105D5000137080220021520002F0A0F82B689A787C
:105D6000D207FCD49A789207F9D45C6270BD000027
:105D70001F22144BF0B51B68590B9C0C9B01114062
:105D800014405B0F914200D105211F2C00D1023C31
:105D9000072B00D1043B02688F01158D0A491F268D
:105DA00029403943118505683440298D0A00B243E2
:105DB00022432A8500681903028D044B13400B43CC
:105DC0000385F0BD246080003FF8FFFFFF8FFFFFD9
:105DD0000B0010B50100180001F0E8FF10BD10B570
:105DE000FFF736FF10BD000002B4714649084900B4
:105DF000095C49008E4402BC7047C046002243083B
:105E00008B4274D303098B425FD3030A8B4244D382
:105E1000030B8B4228D3030C8B420DD3FF220902C4
:105E200012BA030C8B4202D31212090265D0030B83
:105E30008B4219D300E0090AC30B8B4201D3CB0379
:105E4000C01A5241830B8B4201D38B03C01A5241BB
:105E5000430B8B4201D34B03C01A5241030B8B42BD
:105E600001D30B03C01A5241C30A8B4201D3CB02A8
:105E7000C01A5241830A8B4201D38B02C01A52418D
:105E8000430A8B4201D34B02C01A5241030A8B4290
:105E900001D30B02C01A5241CDD2C3098B4201D3A8
:105EA000CB01C01A524183098B4201D38B01C01A26
:105EB000524143098B4201D34B01C01A524103099D
:105EC0008B4201D30B01C01A5241C3088B4201D34C
:105ED000CB00C01A524183088B4201D38B00C01AF9
:105EE000524143088B4201D34B00C01A5241411A20
:105EF00000D20146524110467047FFE701B500202D
:105F000000F0F0F802BDC0460029F7D076E77047F0
:105F100003460B437FD4002243088B4274D303090A
:105F20008B425FD3030A8B4244D3030B8B4228D3AB
:105F3000030C8B420DD3FF22090212BA030C8B42D1
:105F400002D31212090265D0030B8B4219D300E071
:105F5000090AC30B8B4201D3CB03C01A5241830BF6
:105F60008B4201D38B03C01A5241430B8B4201D3A6
:105F70004B03C01A5241030B8B4201D30B03C01ACF
:105F80005241C30A8B4201D3CB02C01A5241830A49
:105F90008B4201D38B02C01A5241430A8B4201D378
:105FA0004B02C01A5241030A8B4201D30B02C01AA2
:105FB0005241CDD2C3098B4201D3CB01C01A524109
:105FC00083098B4201D38B01C01A524143098B4292
:105FD00001D34B01C01A524103098B4201D30B017B
:105FE000C01A5241C3088B4201D3CB00C01A5241A0
:105FF00083088B4201D38B00C01A524143088B4265
:1060000001D34B00C01A5241411A00D201465241FD
:10601000104670475DE0CA0F00D04942031000D31C
:106020004042534000229C4603098B422DD3030A71
:106030008B4212D3FC22890112BA030A8B420CD381
:10604000890192118B4208D3890192118B4204D3AA
:1060500089013AD0921100E08909C3098B4201D32A
:10606000CB01C01A524183098B4201D38B01C01A64
:10607000524143098B4201D34B01C01A52410309DB
:106080008B4201D30B01C01A5241C3088B4201D38A
:10609000CB00C01A524183088B4201D38B00C01A37
:1060A0005241D9D243088B4201D34B00C01A52410E
:1060B000411A00D20146634652415B10104601D39B
:1060C0004042002B00D54942704763465B1000D325
:1060D000404201B5002000F005F802BD0029F8D0CB
:1060E00016E770477047C0468446101C62468C46CF
:1060F000191C634600E0C0461FB500F00FFF0028E2
:1061000001D40021C8421FBD10B500F067FE404217
:10611000013010BD10B500F001FF002801DB0020A8
:1061200010BD012010BDC04610B500F0F7FE0028DC
:1061300001DD002010BD012010BDC04610B500F0EB
:1061400089FE002801DC002010BD012010BDC046E2
:1061500010B500F07FFE002801DA002010BD0120FC
:1061600010BDC04670B500220C4B04000D00FFF7B7
:10617000EFFF002804D12000290001F00DFD70BDC3
:10618000064B00222000290001F0A2F901F004FDD5
:1061900080231B069C466044F1E7C0460000E041B6
:1061A000F0B54F464646D6460C000903C0B5490A2D
:1061B000470F5E0039431F03DB0F9C4665007B0AD7
:1061C000570F1F436D0DE40F760DA146C000B84672
:1061D000D200AB1B64457BD0002B5FDD002E00D0CE
:1061E000A4E03E00164300D112E15E1E002E00D056
:1061F0009EE1871A4346B84280410125C91A4042B0
:10620000091A0B0200D431E149024E0A002E00D1D6
:106210006EE1300001F0ACFD0300083B1F2B00DDF8
:1062200061E120223900D21A9E40D1409F400E43A6
:106230009D4200DD51E15D1B6B1C1F2B00DD7CE1ED
:106240002021C91A3D0030008F408840DD40791E72
:106250008F41310007222843D940002507433A40A7
:10626000002A09D00F233B40042B05D03B1DBB4225
:10627000BF417F42C9191F000B0200D426E26A1CED
:10628000C64B55056D0D9A4200D106E1C44AFF0880
:106290000A40530752023B43120B8EE0002B00D002
:1062A000B8E06B1C5B055B0D012B00DC30E1871A4D
:1062B0004346B842B641CB1A76429E1B330200D504
:1062C0004CE13B003343A1D100220024002570E0C3
:1062D000002B00DCE5E0002E00D183E0AF4EB5429C
:1062E00060D0802636043743B846382B00DC3EE1C8
:1062F000434613431F007A1E97413F18874280414F
:10630000404209180B0200D4B0E0A44B01359D4275
:1063100000D1C3E0A24A7B080A4001210F401F437D
:106320005108D30707221F433A4099E79B4EB542D5
:1063300038D0802636043743B846382B00DDDCE001
:106340001F2B00DC30E11E004746203EF740BC46D4
:10635000202B04D04026F31A46469E4032431700B5
:1063600063467A1E97411F43CCE0002B00D104E224
:106370004346134300D159E14B07C008184380231B
:10638000C9081B03194208D04546ED081D4204D137
:106390004346D008590708432900420FC9007F4DE2
:1063A0001143C0004B07CA087C49C00803438D4213
:1063B00068D012036D05120B6D0D00211203180039
:1063C000130B0A0D12051A43764B2D0513402B4370
:1063D0005B00E4075B08234319001CBC9046994608
:1063E000A246F0BD3E00164312D05E1E002E00D025
:1063F00000E1871887428041414440420918012545
:106400000B0233D5022585E7644633004146100070
:106410001D00C7E7002D00D0DAE00C000443F3D0E4
:106420005C1C00D19FE15D4CA64200D12FE1DB4313
:10643000382B00DD66E11F2B00DD83E12024050001
:10644000E41A0F00DD40D940A0404346A7405B1A44
:10645000441EA04198462F433843171ABA4292412E
:1064600043465242991A64463500CAE607223A402A
:10647000002A00D0F6E64B07CA084849FF083B430C
:106480008D4296D11900114300D19EE1802109036C
:106490000A431203120B414D8FE71500002200231F
:1064A0008BE7002B00D0C7E06B1C5F057F0D012F31
:1064B00000DCF1E0394DAB4200D1B9E085180A00AB
:1064C000854289414244494251180722CF076D084D
:1064D0002F4349083A401D00C2E607223049ED1A11
:1064E00031403A40BCE63E002838864000279FE60F
:1064F000380001F03DFC20308EE6434613431F0078
:106500007A1E9741C71BB84280414042091A78E67B
:106510000E003B0006431343002D61D1002E00D036
:10652000F4E0002B00D11BE164463900100039E78C
:106530001A4FBB427AD03300FFE630001F3DE840DF
:10654000202B03D04021CB1A9E4037437B1E9F4116
:10655000072207433A400021002589E7171A4346DE
:10656000BA42B641591A76428E1B64464EE61F2B3C
:1065700000DDADE020264746F61AB740B9461700C1
:10658000B246DF404E463E4337005646B240561EA6
:10659000B24117434246DA408918AEE6FF070000D1
:1065A000FFFF7FFFFFFF0F8020264746F61AB74008
:1065B000B9461700B246DF404E463E4337005646C6
:1065C000B240561EB24117434246DA40891A99E753
:1065D0007F4CA6425BD0802424045B42214327E702
:1065E000002E0CD1002B00D1CBE064463900100006
:1065F000774DD7E6764FBB4218D0330075E6002BB7
:1066000014D04B07C00818438023C9081B03194244
:1066100007D0FC081C4204D17907D0080843E146A2
:1066200021004C46420FC9001143C000684DB9E635
:106630001D0000220023C0E6002D5BD10D000543A4
:1066400000D1E2E65D1C00D1B0E0614DAE421FD04A
:10665000DB43382B71DC1F2B00DD96E020250F007B
:10666000ED1AAF40B9460700AA46DF404D463D430C
:106670002F005546A840D940451EA84188440743ED
:10668000BF18974292415142414435003AE6644670
:1066900035004146100085E60B000343002D00D075
:1066A00063E6002BF5D04346134300D17AE6871802
:1066B0008742804107224144404209183A400B0278
:1066C00000D4D5E6434B01351940C9E5380069E6E9
:1066D0001E004746203EF740BC46202B04D04026F3
:1066E000F31A46469E403243170063467A1E97418E
:1066F0001F4302E6364DAE42CAD080252D045B42D0
:106700002943A6E70843411E8841A6E6002B00D195
:1067100048E6871A4346B842B641CB1A76429E1BDA
:1067200033024BD5171A4346BA429241591A524284
:10673000891A072264463A4092E501430F00791E08
:106740008F419DE71C000F00203CE740202B03D029
:106750004024E31A99400843411E884138437CE6AF
:106760000022002425E6171A4346BA429241591ADC
:106770005242891A6446350043E541461000144DE3
:1067800010E680220024120380E61D000F00203D49
:10679000EF40BC46202B03D04025EB1A994008431C
:1067A00007006346781E87411F4369E787189742B1
:1067B0009B4141445B42C9183500A3E53B0033438C
:1067C000CED0072231003A4052E600231A00F4E509
:1067D000FF070000FFFF7FFFF0B55746DE464E463D
:1067E0004546E0B5834607000E03480085B0924653
:1067F0001C00360B400DCD0F002800D19DE0954BBD
:10680000984239D08023F6001B041E43924A7B0F26
:1068100033439946944603006344009300230026C3
:10682000FF00029323031B0B98466300E40F5246BC
:106830005B0D019400D1B3E086498B4200D19EE00C
:106840004246D100802212040A435146490F1143A7
:106850008B46814952468C4600996344CB1A0021ED
:10686000D20000932B0063409A460F2E00D905E119
:106870007A4BB6009B599F465B463343994600D0FE
:10688000B8E002230826002700900293CAE7CB460F
:106890003A0002990195019B9A46022927D00329C3
:1068A00000D180E2012944D06D49009B8C466344AD
:1068B0001C00002C38DD530700D013E2D2085B46E1
:1068C000DB0109D55946674B19408B468021C90029
:1068D0008C46009B63441C00634B9C4207DC5B4678
:1068E00064055F075B0217431B0B620D02E0002388
:1068F0000027584A00211B031C0B0B0D1B052343CB
:1069000014055A4A380013401C4353466400DB0701
:1069100064081C43210005B03CBC90469946A24641
:10692000AB46F0BD0122524201231B1B382B00DC79
:10693000ADE1002200230027DCE75B4633439946A4
:106940005ED0002E00D18AE1300001F011FA030080
:106950000B3B1C2B00DD7BE11D22D31A5A460100A4
:10696000DA4008398E4013005F46334399468F4022
:106970003F4B00261B1A00930023029352E7414627
:1069800053460B433B499B468C46009B6344009314
:106990005B46002B3BD1022300221E43022161E70C
:1069A000434613439B4637D04346002B00D162E158
:1069B000404601F0DDF903000B3B1C2B00DD53E1E9
:1069C00002004146083A914088461D21CB1A5146A3
:1069D000D9400B0041460B439B46534693401A0057
:1069E000009B25499C46604403008C466344009309
:1069F000002137E70323B14600900C26029311E7EC
:106A00000023009301330426002702930AE703239F
:106A1000C3461E43032125E701331E430022012103
:106A200020E700239A46802300271B03094A61E7D9
:106A3000802349461B03194200D1E2E0594619421E
:106A400000D0DEE00B431B0317001B0BA246014ADC
:106A500050E7C046FF07000001FCFFFF34BD000007
:106A6000FF030000FFFFFFFEFE070000FFFF0F8097
:106A70000DFCFFFF01F8FFFFF3030000D94500D92B
:106A8000CBE000D1C6E03C0048460027009B013B1C
:106A900000935B46160E1B021E43130298463304F6
:106AA0001B0C9946310C0191FFF72EFA4A464243DE
:106AB0000B04210C050019438A4207D98919013DAD
:106AC0008E4203D88A4201D9851E8919881A0199F4
:106AD000FFF71AFA09048C464A46210464464243E9
:106AE000090C030021438A4204D98919013B8E42D3
:106AF00000D8F1E02D041D43AB464346891A4246B7
:106B0000280C12041D0C5B46140C22001B041B0CE9
:106B10005A4303946B434443029568431B19150C75
:106B2000EB189C4203D980246402A44660441C0CE8
:106B300015041B042D0C20185D19814277D373D0E6
:106B40000C1AA24A7D1BAF42BF419446009B7F4274
:106B50006344E01B1C00864200D1DBE00199FFF793
:106B6000D3F94A4642430B04290C070019438A42D1
:106B700007D98919013F8E4203D88A4201D9871E5D
:106B80008919881A0199FFF7BFF909044A4689460D
:106B900029044D464243090C030029438A4207D980
:106BA0008919013B8E4203D88A4201D9831E891973
:106BB0003F04891A3A00039F1A43380013041B0C40
:106BC000584381460298150C6F434343454348465A
:106BD000000C8446DB1963449F4203D980204002A5
:106BE0008446654448461F0C00041B04000C7D19B4
:106BF0001818A94200D284E000D17FE001231A4393
:106C000057E680234A461B0313431B031B0BAA466C
:106C10006F4A6FE6BA4200D935E74B46DC075808A1
:106C20007B081C43FF0734E70024AF4289D2474466
:106C30004745A4415B466442A4196418013BA6423F
:106C40001ED2A0426DD800D1B6E0241A9B4678E748
:106C500003005A46283B9A400027914688E658464A
:106C600001F086F8203072E603005246283B9A4035
:106C700093460022B4E6504601F07AF820309AE6B6
:106C8000A642E2D1B845DCD9341A9B4659E71F2BFE
:106C900065DC504C0099A4465C46614408008C4079
:106CA00011008240D940501E82410C4314435A4681
:106CB000DA401300620709D00F222240042A05D0CF
:106CC0002200141D9442894149425B181A0262D580
:106CD0000122002300270DE68A4200D80AE7831E1E
:106CE000891907E70F231340042B00D1E6E5171D90
:106CF0009742924153429B44FA08E0E5002800D1B4
:106D0000D7E57118531EB14227D3A94215D358D0E5
:106D10001A0073E7002B00DC04E6012300229B44E9
:106D2000CDE502234744474589415B429C464942A1
:106D300089190C19E344241A03E743465F004745C9
:106D40009B41B8465B429E19023A8919A94200D07C
:106D500054E7404500D051E7ABE51A00F6E71F21A4
:106D60005F4649420C1BE740202B07D01A49009B85
:106D70008C46634418005B4683401A43501E824190
:106D80003A4307270023174009D00F210023114061
:106D90001400042995D122005F075B021B0BD20867
:106DA00017430022A6E5802359461B030B431B0310
:106DB00017001B0B064A9DE5BD42B2D89B46002436
:106DC000BFE68045B9D31A00C3E7C046FF03000001
:106DD000FF0700001E0400003E040000F0B54F460F
:106DE0004646D6468446C0B58046194E18030F0362
:106DF0004D00000B5C0082463F0B6D0DC90F9146A4
:106E0000640DDB0F0120B5420AD0B44203D0A54285
:106E100001D157450CD01CBC90469946A246F0BD06
:106E200066463E43F7D1AC42F5D154461443F2D105
:106E30000120C845EFD1994207D0002DEBD1634620
:106E40001F433800471EB841E5E70020E3E7C0468E
:106E5000FF070000F0B54F464646D6464D00C0B588
:106E60000E03C90F8A462C491F035C008046360B6F
:106E70006D0D91463F0B640DDB0F8D421ED08C4291
:106E800016D0002D1ED130438446002C01D13A4348
:106E900023D06246002A1AD09A4529D051460220B2
:106EA0000139084001381CBC90469946A246F0BD05
:106EB00039001143E5D002204042F4E73043FAD1D3
:106EC000AC420FD0002C0FD13A43E7D00CE00122A6
:106ED000013B934318000130E5E763460020002B97
:106EE000E1D0DBE73A43E6D19A45D7D1A542D5DCDC
:106EF000A54205DBBE42D1D808D00020BE42D2D286
:106F000050460123013898430130CCE7C845C5D825
:106F10000020C845F4D3C6E7FF070000F0B54F4690
:106F20004646D6464D00C0B50E03C90F8A462E49C7
:106F30001F035C008046360B6D0D91463F0B640DC0
:106F4000DB0F8D4218D08C4211D0002D18D1304368
:106F50008446002C1ED13A431CD163460020002BEE
:106F600030D0514602200139084001382AE039006A
:106F70001143EAD0022025E03043FBD1AC4226D0B9
:106F8000002C26D13A4324D1514602200139084031
:106F9000013817E06246002A0FD09A45E1D1A54298
:106FA00005DBBE42DDD819D00020BE420AD25046D1
:106FB000012301389843013004E00122013B93434F
:106FC000180001301CBC90469946A246F0BD3A43D9
:106FD000D0D19A45C5D1A542C3DCE0E7C845C0D8A9
:106FE0000020C845E3D3EDE7FF070000F0B55746A2
:106FF000DE464E464546E0B5834606000F03480090
:1070000087B092461D003F0B400DCC0F002800D1E9
:107010006FE0DE4B984238D08023FF001B041F43F3
:10702000730F3B430193DA4B0027994600239B469D
:10703000F60081442B0369001B0B52469846490D0C
:10704000ED0F002900D185E0D04B994200D173E0CB
:107050004346DA0080231B0413435246CC48520FA8
:1070600084461343524600206144D20089442100E3
:10707000694000918C46012149448A460F2F00D96E
:1070800090E0C449BF00CF59BF465B463B430193E4
:1070900000D06AE102230827002681469B46C9E703
:1070A00032005846019B61460091022800D175E0EC
:1070B000032800D1FEE1012800D02CE100230027A5
:1070C000002600253F032A0D3F0BB34812053A4323
:1070D00002401B051343009A5B00D1075B080B437A
:1070E0003000190007B03CBC90469946A246AB461A
:1070F000F0BD5B463B43019300D12FE1002F00D14F
:10710000A5E1380000F034FE03000B3B1C2B00DD32
:1071100096E11D22D31A5A460100DA405E4608392C
:107120008F4013008E403B4301939C4B00271B1A5A
:10713000994600239B467DE7414653460B439349BE
:107140008C46E144002B00D01AE1022202201743B2
:1071500000228CE7134300D10DE14346002B00D100
:1071600081E1404600F004FE02000B3A1C2A00DDDB
:1071700072E10100434608398B4098461D239A1A54
:107180005346D3401A004346134352468A40494669
:10719000081A824989468144002068E77B4B002712
:1071A00000268EE7140C1204120C1100370C360462
:1071B000350C794328008C462E006043604483469A
:1071C00056432100300C8046584679434044029192
:1071D000844506D98846802149028C46E0444146D0
:1071E00002913604010C360C00048B4681191E0CEA
:1071F0001B041B0C0391190079438C46280075432E
:107200006544A8465843050C45447743A94203D931
:10721000802149028C466744290C8C4639000004C1
:10722000000C2D042D186144AB440591594604917E
:1072300001990F043F0C080C39005143424390461A
:1072400002008C46090C8B4662437C4344445C44F8
:10725000A04503D98021490288464244210C884632
:1072600061460904090C8C46390059434343704375
:107270007E430F0CF6182404BE19644442448C4625
:10728000B34203D980235B0298464044029B614687
:107290009846049B370443449B46AB45AD416B4243
:1072A0000D0405992D0C8C467F196744FD18A846DE
:1072B0005D462D19A542A44193466442A446C344A9
:1072C000DC448F42BF4198459B4193459241A44580
:1072D000A4415B427F421F43360C52426442BF19B5
:1072E0002243BF18624638184302D20D0399134354
:1072F0006A020A43501E82416146ED0D2A434E0246
:107300003243D90100D4B3E0012650083240024391
:10731000DE0732435B08224C5444002C62DD5107E7
:1073200009D00F201040042805D0101D9042924132
:1073300052429B180200D90104D580241948E40068
:10734000034054441848844200DD27E75E075B028F
:10735000D2081F0B630516435B0DB2E60023994666
:107360000133042700269B4664E6032301978146E8
:107370000C279B465EE6012201201743002276E699
:10738000032303201F43434671E6C046FF07000066
:1073900001FCFFFF74BD0000FFFF0F800DFCFFFF2D
:1073A000FF030000FFFFFFFEFE0700000023802711
:1073B00000933F030026434B83E6019B3200A44623
:1073C000584670E6AC466EE6802701993F03394285
:1073D0002DD03B422BD11F433F033F0B009516009E
:1073E000384B6EE601252D1B382D00DD66E61F2D7E
:1073F00040DC35481C005044160082408440EE407A
:10740000501E824134431443EB40620709D00F22DF
:107410002240042A05D02200141D9442804140429B
:107420001B181A023ED501230027002649E68027B3
:10743000019B3F031F433F033F0B0094214B40E65A
:1074400003005A46283B9A40002601926DE65846B2
:1074500000F08EFC203057E603005246283B9A404D
:107460001300002293E6504600F082FC20307BE6B9
:10747000CA4650E71F201E004042041BE640202D54
:1074800003D0124C5444A3401A43501E824132434D
:1074900007260027164009D00F20002310401400B3
:1074A0000428B9D122005E075B021F0BD2081643E5
:1074B000002306E680273F031F433F033F0B1600D0
:1074C000004BFEE5FF0700001E0400003E04000024
:1074D000F8B557464E464546DE460C000903E0B572
:1074E000490A460F5F0031431E03DB0F760A9B46B5
:1074F000530F3343C84E6500C000E40FD2006D0D3A
:10750000A24681467F0D9C469046B74200D1B9E025
:107510005B46012673409B46EE1BA34500D183E0EA
:10752000002E63DD002F00D0B1E06346134300D18D
:1075300023E1731E002B00D0BAE1861A6346B042E5
:1075400080410125C91A4042091A0B0200D447E1C3
:1075500049024B0A98464346002B00D189E1404638
:1075600000F006FC0300083B1F2B00DD7CE120221D
:107570003000D21A4146D040994002009E400A4352
:107580009D4200DD6AE15D1B6B1C1F2B00DD94E159
:10759000202110003500C91A8E40DA408840DD40B5
:1075A000711E8E41110007222843002506433240F8
:1075B000002A09D00F233340042B05D0331DB342DA
:1075C000B641764289191E000B0200D43DE26A1CC6
:1075D000914B55056D0D9A4200D119E18F4AF6087D
:1075E0000A40570752023743120B9BE0002E00D08F
:1075F000C5E06E1C7605760D012E00DC48E167467D
:10760000861ACB1BB042BF417F42B8461F0043469B
:10761000FF1A3B00B8461B0200D55FE137439AD101
:1076200000220024002579E0002E00DCFAE0002F83
:1076300000D18DE0784B9D4267D0802367461B04C4
:107640001F43BC46382E00DC52E1634613435A1EEA
:1076500093411E1886428041404209180B0200D413
:10766000BEE06D4B01359D4200D1D2E06B4A7308FC
:107670000A4001210E401E435108D30707221E4332
:10768000324095E71E00164300D045E740E7624BC5
:107690009D423AD0802367461B041F43BC46382EC8
:1076A00000DDEBE01F2E00DC3AE133006746203BB3
:1076B000DF403B00202E05D04027BF1B6646BE4062
:1076C000324390464646721E96413343DAE0002B21
:1076D00000D114E26346134300D168E180234E07D2
:1076E000C008C9081B030643194208D06046C008F9
:1076F000184204D163460100D2085E071643F30026
:107700009946C900720F444D11434B46DE08424B67
:107710004F073743CA089D4200D16EE012036D0542
:10772000120B6D0D00211203130B0A0D12051A43E3
:107730003B4B2D0513402B435B00E4075B082343C1
:10774000380019003CBC90469946A246AB46F8BDAD
:107750006346134311D0731E002B00D007E1861837
:107760008642804161444042091801250B0237D509
:1077700002257BE73E00614691463500C5E75C4641
:10778000002D00D0E1E00B000343F3D0731C00D1C7
:10779000ACE1214B9F4200D13AE1F343382B00DDAD
:1077A0006FE11F2B00DD8CE120250E00ED1AAE40AD
:1077B000B0460600AA46DE40454635432E005546F3
:1077C000D940A8406346451EA8415B1A9C463043F9
:1077D000161AB242924163465242991A3D00B4E6EB
:1077E00007223240002A00D0E4E60B4BF6084F0790
:1077F0003743CA089D4200D090E73B00134300D1B5
:10780000A6E180231B031A431203120B024D89E7E2
:1078100015000022002785E7FF070000FFFF7FFF1C
:10782000FFFF0F80002E00D0C7E06B1C5E05760DB9
:10783000012E00DCF0E0C84DAB4200D1B9E0851864
:107840000A00854289416244494251180722CE0705
:107850006D082E43490832401D00A9E6BF49ED1AC4
:10786000114007223240A3E6320028388240002629
:1078700086E6300000F07CFA203073E6634613435E
:107880005A1E9341C61AB04280414042091A5CE632
:107890000E00674606431743002D5ED1002E00D030
:1078A000F3E0002F00D11EE15C46614691462CE7D3
:1078B000A94FBE427BD01E00F1E610001F3DE840FC
:1078C000202B03D04021CB1A9A401643731E9E41B1
:1078D0000722064332400021002583E7161A63463B
:1078E000B2428041591A40420B1A98465C4632E631
:1078F0001F2E00DDABE02027BB1B9A466346574690
:10790000BB40994613004F46F3401F433B00574688
:10791000BA40571EBA4113436246F240891898E6AE
:107920002027BB1B9A4663465746BB409946130027
:107930004F46F3401F433B005746BA40571EBA41DB
:1079400013436246F240891A9CE7834B9F425FD003
:1079500080252D047342294320E7002E0CD1002FEF
:1079600000D1D0E05C46614691467B4DCDE67A4F32
:10797000BE421CD01E0065E6002F18D0C0084E077E
:1079800006438020C9080003014208D06346DC0892
:10799000044204D12100DA46D2085E071643F30000
:1079A000994601245346C900720F11431C406A4D89
:1079B000ABE61D0000220027B4E6002D59D10B00D4
:1079C000034300D1D6E6731C00D1B2E0624B9F4264
:1079D0001ED0F343382B6FDC1F2B00DD97E02025F2
:1079E0000E00ED1AAE40B0460600AA46DE404546FF
:1079F00035432E005546A840D940451EA8418C4429
:107A00000643B61896429241514261443D0025E634
:107A10003D006146914678E60B000343002D00D0FF
:107A200055E6002BF5D06346134300D16DE686186A
:107A30008642804161444042091800220B0200D472
:107A4000D0E6464B01351940B2E5B1465DE633005C
:107A50006746203BDF403B00202E05D04027BF1B60
:107A60006646BE40324390464646721E96413343B8
:107A7000EFE5394B9F42CBD080252D04734229433B
:107A8000A8E70843411E8841A2E6002F00D13CE64A
:107A90006346861ACF1AB0429B415B42FB1A984656
:107AA0001B024ED5161A6346B2429241591A5242EF
:107AB000891A5C4600227BE501430E00711E8E414F
:107AC0009FE71D000E00203DEE40B046202B04D065
:107AD0004025EB1A99400843814648464346411EDB
